{
  "_format": "hh-sol-artifact-1",
  "contractName": "KClO3",
  "sourceName": "contracts/KClO3.sol",
  "abi": [
    {
      "inputs": [],
      "stateMutability": "nonpayable",
      "type": "constructor"
    },
    {
      "anonymous": false,
      "inputs": [
        {
          "indexed": true,
          "internalType": "address",
          "name": "owner",
          "type": "address"
        },
        {
          "indexed": true,
          "internalType": "address",
          "name": "spender",
          "type": "address"
        },
        {
          "indexed": false,
          "internalType": "uint256",
          "name": "value",
          "type": "uint256"
        }
      ],
      "name": "Approval",
      "type": "event"
    },
    {
      "anonymous": false,
      "inputs": [
        {
          "indexed": false,
          "internalType": "string",
          "name": "message",
          "type": "string"
        },
        {
          "indexed": false,
          "internalType": "uint256",
          "name": "val",
          "type": "uint256"
        }
      ],
      "name": "Log",
      "type": "event"
    },
    {
      "anonymous": false,
      "inputs": [
        {
          "indexed": true,
          "internalType": "address",
          "name": "from",
          "type": "address"
        },
        {
          "indexed": true,
          "internalType": "address",
          "name": "to",
          "type": "address"
        },
        {
          "indexed": false,
          "internalType": "uint256",
          "name": "value",
          "type": "uint256"
        }
      ],
      "name": "Transfer",
      "type": "event"
    },
    {
      "inputs": [
        {
          "internalType": "address",
          "name": "_tokenA",
          "type": "address"
        },
        {
          "internalType": "address",
          "name": "_tokenB",
          "type": "address"
        },
        {
          "internalType": "uint256",
          "name": "_amountA",
          "type": "uint256"
        },
        {
          "internalType": "uint256",
          "name": "_amountB",
          "type": "uint256"
        }
      ],
      "name": "addLiquidity",
      "outputs": [],
      "stateMutability": "nonpayable",
      "type": "function"
    },
    {
      "inputs": [
        {
          "internalType": "address",
          "name": "owner",
          "type": "address"
        },
        {
          "internalType": "address",
          "name": "spender",
          "type": "address"
        }
      ],
      "name": "allowance",
      "outputs": [
        {
          "internalType": "uint256",
          "name": "",
          "type": "uint256"
        }
      ],
      "stateMutability": "view",
      "type": "function"
    },
    {
      "inputs": [
        {
          "internalType": "address",
          "name": "spender",
          "type": "address"
        },
        {
          "internalType": "uint256",
          "name": "amount",
          "type": "uint256"
        }
      ],
      "name": "approve",
      "outputs": [
        {
          "internalType": "bool",
          "name": "",
          "type": "bool"
        }
      ],
      "stateMutability": "nonpayable",
      "type": "function"
    },
    {
      "inputs": [
        {
          "internalType": "address",
          "name": "account",
          "type": "address"
        }
      ],
      "name": "balanceOf",
      "outputs": [
        {
          "internalType": "uint256",
          "name": "",
          "type": "uint256"
        }
      ],
      "stateMutability": "view",
      "type": "function"
    },
    {
      "inputs": [],
      "name": "decimals",
      "outputs": [
        {
          "internalType": "uint8",
          "name": "",
          "type": "uint8"
        }
      ],
      "stateMutability": "view",
      "type": "function"
    },
    {
      "inputs": [
        {
          "internalType": "address",
          "name": "spender",
          "type": "address"
        },
        {
          "internalType": "uint256",
          "name": "subtractedValue",
          "type": "uint256"
        }
      ],
      "name": "decreaseAllowance",
      "outputs": [
        {
          "internalType": "bool",
          "name": "",
          "type": "bool"
        }
      ],
      "stateMutability": "nonpayable",
      "type": "function"
    },
    {
      "inputs": [
        {
          "internalType": "address",
          "name": "spender",
          "type": "address"
        },
        {
          "internalType": "uint256",
          "name": "addedValue",
          "type": "uint256"
        }
      ],
      "name": "increaseAllowance",
      "outputs": [
        {
          "internalType": "bool",
          "name": "",
          "type": "bool"
        }
      ],
      "stateMutability": "nonpayable",
      "type": "function"
    },
    {
      "inputs": [],
      "name": "name",
      "outputs": [
        {
          "internalType": "string",
          "name": "",
          "type": "string"
        }
      ],
      "stateMutability": "view",
      "type": "function"
    },
    {
      "inputs": [
        {
          "internalType": "address",
          "name": "_tokenA",
          "type": "address"
        },
        {
          "internalType": "address",
          "name": "_tokenB",
          "type": "address"
        }
      ],
      "name": "removeLiquidity",
      "outputs": [],
      "stateMutability": "nonpayable",
      "type": "function"
    },
    {
      "inputs": [],
      "name": "symbol",
      "outputs": [
        {
          "internalType": "string",
          "name": "",
          "type": "string"
        }
      ],
      "stateMutability": "view",
      "type": "function"
    },
    {
      "inputs": [],
      "name": "totalSupply",
      "outputs": [
        {
          "internalType": "uint256",
          "name": "",
          "type": "uint256"
        }
      ],
      "stateMutability": "view",
      "type": "function"
    },
    {
      "inputs": [
        {
          "internalType": "address",
          "name": "recipient",
          "type": "address"
        },
        {
          "internalType": "uint256",
          "name": "amount",
          "type": "uint256"
        }
      ],
      "name": "transfer",
      "outputs": [
        {
          "internalType": "bool",
          "name": "",
          "type": "bool"
        }
      ],
      "stateMutability": "nonpayable",
      "type": "function"
    },
    {
      "inputs": [
        {
          "internalType": "address",
          "name": "sender",
          "type": "address"
        },
        {
          "internalType": "address",
          "name": "recipient",
          "type": "address"
        },
        {
          "internalType": "uint256",
          "name": "amount",
          "type": "uint256"
        }
      ],
      "name": "transferFrom",
      "outputs": [
        {
          "internalType": "bool",
          "name": "",
          "type": "bool"
        }
      ],
      "stateMutability": "nonpayable",
      "type": "function"
    }
  ],
  "bytecode": "0x60806040523480156200001157600080fd5b506040518060400160405280601281526020017f506f7461737369756d2043686c6f7261746500000000000000000000000000008152506040518060400160405280600581526020017f4b436c4f3300000000000000000000000000000000000000000000000000000081525081600390805190602001906200009692919062000286565b508060049080519060200190620000af92919062000286565b505050620000f433620000c7620000fa60201b60201c565b60ff16600a620000d8919062000476565b620f4240620000e89190620005b3565b6200010360201b60201c565b620006e8565b60006012905090565b600073ffffffffffffffffffffffffffffffffffffffff168273ffffffffffffffffffffffffffffffffffffffff16141562000176576040517f08c379a00000000000000000000000000000000000000000000000000000000081526004016200016d906200036e565b60405180910390fd5b6200018a600083836200027c60201b60201c565b80600260008282546200019e9190620003be565b92505081905550806000808473ffffffffffffffffffffffffffffffffffffffff1673ffffffffffffffffffffffffffffffffffffffff1681526020019081526020016000206000828254620001f59190620003be565b925050819055508173ffffffffffffffffffffffffffffffffffffffff16600073ffffffffffffffffffffffffffffffffffffffff167fddf252ad1be2c89b69c2b068fc378daa952ba7f163c4a11628f55a4df523b3ef836040516200025c919062000390565b60405180910390a362000278600083836200028160201b60201c565b5050565b505050565b505050565b82805462000294906200061e565b90600052602060002090601f016020900481019282620002b8576000855562000304565b82601f10620002d357805160ff191683800117855562000304565b8280016001018555821562000304579182015b8281111562000303578251825591602001919060010190620002e6565b5b50905062000313919062000317565b5090565b5b808211156200033257600081600090555060010162000318565b5090565b600062000345601f83620003ad565b91506200035282620006bf565b602082019050919050565b620003688162000614565b82525050565b60006020820190508181036000830152620003898162000336565b9050919050565b6000602082019050620003a760008301846200035d565b92915050565b600082825260208201905092915050565b6000620003cb8262000614565b9150620003d88362000614565b9250827fffffffffffffffffffffffffffffffffffffffffffffffffffffffffffffffff0382111562000410576200040f62000654565b5b828201905092915050565b6000808291508390505b60018511156200046d5780860481111562000445576200044462000654565b5b6001851615620004555780820291505b80810290506200046585620006b2565b945062000425565b94509492505050565b6000620004838262000614565b9150620004908362000614565b9250620004bf7fffffffffffffffffffffffffffffffffffffffffffffffffffffffffffffffff8484620004c7565b905092915050565b600082620004d95760019050620005ac565b81620004e95760009050620005ac565b81600181146200050257600281146200050d5762000543565b6001915050620005ac565b60ff84111562000522576200052162000654565b5b8360020a9150848211156200053c576200053b62000654565b5b50620005ac565b5060208310610133831016604e8410600b84101617156200057d5782820a90508381111562000577576200057662000654565b5b620005ac565b6200058c84848460016200041b565b92509050818404811115620005a657620005a562000654565b5b81810290505b9392505050565b6000620005c08262000614565b9150620005cd8362000614565b9250817fffffffffffffffffffffffffffffffffffffffffffffffffffffffffffffffff048311821515161562000609576200060862000654565b5b828202905092915050565b6000819050919050565b600060028204905060018216806200063757607f821691505b602082108114156200064e576200064d62000683565b5b50919050565b7f4e487b7100000000000000000000000000000000000000000000000000000000600052601160045260246000fd5b7f4e487b7100000000000000000000000000000000000000000000000000000000600052602260045260246000fd5b60008160011c9050919050565b7f45524332303a206d696e7420746f20746865207a65726f206164647265737300600082015250565b611fa680620006f86000396000f3fe608060405234801561001057600080fd5b50600436106100cf5760003560e01c806370a082311161008c578063a457c2d711610066578063a457c2d714610228578063a9059cbb14610258578063cf6c62ea14610288578063dd62ed3e146102a4576100cf565b806370a08231146101be57806395d89b41146101ee5780639cf38f7c1461020c576100cf565b806306fdde03146100d4578063095ea7b3146100f257806318160ddd1461012257806323b872dd14610140578063313ce56714610170578063395093511461018e575b600080fd5b6100dc6102d4565b6040516100e99190611918565b60405180910390f35b61010c60048036038101906101079190611471565b610366565b60405161011991906118fd565b60405180910390f35b61012a610384565b6040516101379190611aa4565b60405180910390f35b61015a600480360381019061015591906113bf565b61038e565b60405161016791906118fd565b60405180910390f35b610178610486565b6040516101859190611abf565b60405180910390f35b6101a860048036038101906101a39190611471565b61048f565b6040516101b591906118fd565b60405180910390f35b6101d860048036038101906101d39190611331565b61053b565b6040516101e59190611aa4565b60405180910390f35b6101f6610583565b6040516102039190611918565b60405180910390f35b61022660048036038101906102219190611383565b610615565b005b610242600480360381019061023d9190611471565b61090f565b60405161024f91906118fd565b60405180910390f35b610272600480360381019061026d9190611471565b6109fa565b60405161027f91906118fd565b60405180910390f35b6102a2600480360381019061029d919061140e565b610a18565b005b6102be60048036038101906102b99190611383565b610de3565b6040516102cb9190611aa4565b60405180910390f35b6060600380546102e390611be6565b80601f016020809104026020016040519081016040528092919081815260200182805461030f90611be6565b801561035c5780601f106103315761010080835404028352916020019161035c565b820191906000526020600020905b81548152906001019060200180831161033f57829003601f168201915b5050505050905090565b600061037a610373610e6a565b8484610e72565b6001905092915050565b6000600254905090565b600061039b84848461103d565b6000600160008673ffffffffffffffffffffffffffffffffffffffff1673ffffffffffffffffffffffffffffffffffffffff16815260200190815260200160002060006103e6610e6a565b73ffffffffffffffffffffffffffffffffffffffff1673ffffffffffffffffffffffffffffffffffffffff16815260200190815260200160002054905082811015610466576040517f08c379a000000000000000000000000000000000000000000000000000000000815260040161045d906119f6565b60405180910390fd5b61047a85610472610e6a565b858403610e72565b60019150509392505050565b60006012905090565b600061053161049c610e6a565b8484600160006104aa610e6a565b73ffffffffffffffffffffffffffffffffffffffff1673ffffffffffffffffffffffffffffffffffffffff16815260200190815260200160002060008873ffffffffffffffffffffffffffffffffffffffff1673ffffffffffffffffffffffffffffffffffffffff1681526020019081526020016000205461052c9190611af6565b610e72565b6001905092915050565b60008060008373ffffffffffffffffffffffffffffffffffffffff1673ffffffffffffffffffffffffffffffffffffffff168152602001908152602001600020549050919050565b60606004805461059290611be6565b80601f01602080910402602001604051908101604052809291908181526020018280546105be90611be6565b801561060b5780601f106105e05761010080835404028352916020019161060b565b820191906000526020600020905b8154815290600101906020018083116105ee57829003601f168201915b5050505050905090565b6000735c69bee701ef814a2b6a3edd4b1652cb9cc5aa6f73ffffffffffffffffffffffffffffffffffffffff1663e6a4390584846040518363ffffffff1660e01b8152600401610666929190611787565b60206040518083038186803b15801561067e57600080fd5b505afa158015610692573d6000803e3d6000fd5b505050506040513d601f19601f820116820180604052508101906106b6919061135a565b905060008173ffffffffffffffffffffffffffffffffffffffff166370a08231306040518263ffffffff1660e01b81526004016106f3919061176c565b60206040518083038186803b15801561070b57600080fd5b505afa15801561071f573d6000803e3d6000fd5b505050506040513d601f19601f8201168201806040525081019061074391906114d6565b90508173ffffffffffffffffffffffffffffffffffffffff1663095ea7b3737a250d5630b4cf539739df2c5dacb4c659f2488d836040518363ffffffff1660e01b81526004016107949291906118d4565b602060405180830381600087803b1580156107ae57600080fd5b505af11580156107c2573d6000803e3d6000fd5b505050506040513d601f19601f820116820180604052508101906107e691906114ad565b50600080737a250d5630b4cf539739df2c5dacb4c659f2488d73ffffffffffffffffffffffffffffffffffffffff1663baa2abde87878660018030426040518863ffffffff1660e01b815260040161084497969594939291906117e7565b6040805180830381600087803b15801561085d57600080fd5b505af1158015610871573d6000803e3d6000fd5b505050506040513d601f19601f8201168201806040525081019061089591906114ff565b915091507fdd970dd9b5bfe707922155b058a407655cb18288b807e2216442bca8ad83d6b5826040516108c8919061197a565b60405180910390a17fdd970dd9b5bfe707922155b058a407655cb18288b807e2216442bca8ad83d6b5816040516108ff91906119a8565b60405180910390a1505050505050565b6000806001600061091e610e6a565b73ffffffffffffffffffffffffffffffffffffffff1673ffffffffffffffffffffffffffffffffffffffff16815260200190815260200160002060008573ffffffffffffffffffffffffffffffffffffffff1673ffffffffffffffffffffffffffffffffffffffff168152602001908152602001600020549050828110156109db576040517f08c379a00000000000000000000000000000000000000000000000000000000081526004016109d290611a84565b60405180910390fd5b6109ef6109e6610e6a565b85858403610e72565b600191505092915050565b6000610a0e610a07610e6a565b848461103d565b6001905092915050565b8373ffffffffffffffffffffffffffffffffffffffff166323b872dd3330856040518463ffffffff1660e01b8152600401610a55939291906117b0565b602060405180830381600087803b158015610a6f57600080fd5b505af1158015610a83573d6000803e3d6000fd5b505050506040513d601f19601f82011682018060405250810190610aa791906114ad565b508273ffffffffffffffffffffffffffffffffffffffff166323b872dd3330846040518463ffffffff1660e01b8152600401610ae5939291906117b0565b602060405180830381600087803b158015610aff57600080fd5b505af1158015610b13573d6000803e3d6000fd5b505050506040513d601f19601f82011682018060405250810190610b3791906114ad565b508373ffffffffffffffffffffffffffffffffffffffff1663095ea7b3737a250d5630b4cf539739df2c5dacb4c659f2488d846040518363ffffffff1660e01b8152600401610b879291906118d4565b602060405180830381600087803b158015610ba157600080fd5b505af1158015610bb5573d6000803e3d6000fd5b505050506040513d601f19601f82011682018060405250810190610bd991906114ad565b508273ffffffffffffffffffffffffffffffffffffffff1663095ea7b3737a250d5630b4cf539739df2c5dacb4c659f2488d836040518363ffffffff1660e01b8152600401610c299291906118d4565b602060405180830381600087803b158015610c4357600080fd5b505af1158015610c57573d6000803e3d6000fd5b505050506040513d601f19601f82011682018060405250810190610c7b91906114ad565b506000806000737a250d5630b4cf539739df2c5dacb4c659f2488d73ffffffffffffffffffffffffffffffffffffffff1663e8e337008888888860018030426040518963ffffffff1660e01b8152600401610cdd989796959493929190611856565b606060405180830381600087803b158015610cf757600080fd5b505af1158015610d0b573d6000803e3d6000fd5b505050506040513d601f19601f82011682018060405250810190610d2f919061153b565b9250925092507fdd970dd9b5bfe707922155b058a407655cb18288b807e2216442bca8ad83d6b583604051610d64919061197a565b60405180910390a17fdd970dd9b5bfe707922155b058a407655cb18288b807e2216442bca8ad83d6b582604051610d9b91906119a8565b60405180910390a17fdd970dd9b5bfe707922155b058a407655cb18288b807e2216442bca8ad83d6b581604051610dd29190611a36565b60405180910390a150505050505050565b6000600160008473ffffffffffffffffffffffffffffffffffffffff1673ffffffffffffffffffffffffffffffffffffffff16815260200190815260200160002060008373ffffffffffffffffffffffffffffffffffffffff1673ffffffffffffffffffffffffffffffffffffffff16815260200190815260200160002054905092915050565b600033905090565b600073ffffffffffffffffffffffffffffffffffffffff168373ffffffffffffffffffffffffffffffffffffffff161415610ee2576040517f08c379a0000000000000000000000000000000000000000000000000000000008152600401610ed990611a64565b60405180910390fd5b600073ffffffffffffffffffffffffffffffffffffffff168273ffffffffffffffffffffffffffffffffffffffff161415610f52576040517f08c379a0000000000000000000000000000000000000000000000000000000008152600401610f499061195a565b60405180910390fd5b80600160008573ffffffffffffffffffffffffffffffffffffffff1673ffffffffffffffffffffffffffffffffffffffff16815260200190815260200160002060008473ffffffffffffffffffffffffffffffffffffffff1673ffffffffffffffffffffffffffffffffffffffff168152602001908152602001600020819055508173ffffffffffffffffffffffffffffffffffffffff168373ffffffffffffffffffffffffffffffffffffffff167f8c5be1e5ebec7d5bd14f71427d1e84f3dd0314c0f7b2291e5b200ac8c7c3b925836040516110309190611aa4565b60405180910390a3505050565b600073ffffffffffffffffffffffffffffffffffffffff168373ffffffffffffffffffffffffffffffffffffffff1614156110ad576040517f08c379a00000000000000000000000000000000000000000000000000000000081526004016110a490611a16565b60405180910390fd5b600073ffffffffffffffffffffffffffffffffffffffff168273ffffffffffffffffffffffffffffffffffffffff16141561111d576040517f08c379a00000000000000000000000000000000000000000000000000000000081526004016111149061193a565b60405180910390fd5b6111288383836112be565b60008060008573ffffffffffffffffffffffffffffffffffffffff1673ffffffffffffffffffffffffffffffffffffffff168152602001908152602001600020549050818110156111ae576040517f08c379a00000000000000000000000000000000000000000000000000000000081526004016111a5906119d6565b60405180910390fd5b8181036000808673ffffffffffffffffffffffffffffffffffffffff1673ffffffffffffffffffffffffffffffffffffffff16815260200190815260200160002081905550816000808573ffffffffffffffffffffffffffffffffffffffff1673ffffffffffffffffffffffffffffffffffffffff16815260200190815260200160002060008282546112419190611af6565b925050819055508273ffffffffffffffffffffffffffffffffffffffff168473ffffffffffffffffffffffffffffffffffffffff167fddf252ad1be2c89b69c2b068fc378daa952ba7f163c4a11628f55a4df523b3ef846040516112a59190611aa4565b60405180910390a36112b88484846112c3565b50505050565b505050565b505050565b6000813590506112d781611f2b565b92915050565b6000815190506112ec81611f2b565b92915050565b60008151905061130181611f42565b92915050565b60008135905061131681611f59565b92915050565b60008151905061132b81611f59565b92915050565b60006020828403121561134357600080fd5b6000611351848285016112c8565b91505092915050565b60006020828403121561136c57600080fd5b600061137a848285016112dd565b91505092915050565b6000806040838503121561139657600080fd5b60006113a4858286016112c8565b92505060206113b5858286016112c8565b9150509250929050565b6000806000606084860312156113d457600080fd5b60006113e2868287016112c8565b93505060206113f3868287016112c8565b925050604061140486828701611307565b9150509250925092565b6000806000806080858703121561142457600080fd5b6000611432878288016112c8565b9450506020611443878288016112c8565b935050604061145487828801611307565b925050606061146587828801611307565b91505092959194509250565b6000806040838503121561148457600080fd5b6000611492858286016112c8565b92505060206114a385828601611307565b9150509250929050565b6000602082840312156114bf57600080fd5b60006114cd848285016112f2565b91505092915050565b6000602082840312156114e857600080fd5b60006114f68482850161131c565b91505092915050565b6000806040838503121561151257600080fd5b60006115208582860161131c565b92505060206115318582860161131c565b9150509250929050565b60008060006060848603121561155057600080fd5b600061155e8682870161131c565b935050602061156f8682870161131c565b92505060406115808682870161131c565b9150509250925092565b61159381611b4c565b82525050565b6115a281611b5e565b82525050565b6115b181611ba1565b82525050565b60006115c282611ada565b6115cc8185611ae5565b93506115dc818560208601611bb3565b6115e581611c76565b840191505092915050565b60006115fd602383611ae5565b915061160882611c87565b604082019050919050565b6000611620602283611ae5565b915061162b82611cd6565b604082019050919050565b6000611643600783611ae5565b915061164e82611d25565b602082019050919050565b6000611666600783611ae5565b915061167182611d4e565b602082019050919050565b6000611689602683611ae5565b915061169482611d77565b604082019050919050565b60006116ac602883611ae5565b91506116b782611dc6565b604082019050919050565b60006116cf602583611ae5565b91506116da82611e15565b604082019050919050565b60006116f2600983611ae5565b91506116fd82611e64565b602082019050919050565b6000611715602483611ae5565b915061172082611e8d565b604082019050919050565b6000611738602583611ae5565b915061174382611edc565b604082019050919050565b61175781611b8a565b82525050565b61176681611b94565b82525050565b6000602082019050611781600083018461158a565b92915050565b600060408201905061179c600083018561158a565b6117a9602083018461158a565b9392505050565b60006060820190506117c5600083018661158a565b6117d2602083018561158a565b6117df604083018461174e565b949350505050565b600060e0820190506117fc600083018a61158a565b611809602083018961158a565b611816604083018861174e565b61182360608301876115a8565b61183060808301866115a8565b61183d60a083018561158a565b61184a60c083018461174e565b98975050505050505050565b60006101008201905061186c600083018b61158a565b611879602083018a61158a565b611886604083018961174e565b611893606083018861174e565b6118a060808301876115a8565b6118ad60a08301866115a8565b6118ba60c083018561158a565b6118c760e083018461174e565b9998505050505050505050565b60006040820190506118e9600083018561158a565b6118f6602083018461174e565b9392505050565b60006020820190506119126000830184611599565b92915050565b6000602082019050818103600083015261193281846115b7565b905092915050565b60006020820190508181036000830152611953816115f0565b9050919050565b6000602082019050818103600083015261197381611613565b9050919050565b6000604082019050818103600083015261199381611636565b90506119a2602083018461174e565b92915050565b600060408201905081810360008301526119c181611659565b90506119d0602083018461174e565b92915050565b600060208201905081810360008301526119ef8161167c565b9050919050565b60006020820190508181036000830152611a0f8161169f565b9050919050565b60006020820190508181036000830152611a2f816116c2565b9050919050565b60006040820190508181036000830152611a4f816116e5565b9050611a5e602083018461174e565b92915050565b60006020820190508181036000830152611a7d81611708565b9050919050565b60006020820190508181036000830152611a9d8161172b565b9050919050565b6000602082019050611ab9600083018461174e565b92915050565b6000602082019050611ad4600083018461175d565b92915050565b600081519050919050565b600082825260208201905092915050565b6000611b0182611b8a565b9150611b0c83611b8a565b9250827fffffffffffffffffffffffffffffffffffffffffffffffffffffffffffffffff03821115611b4157611b40611c18565b5b828201905092915050565b6000611b5782611b6a565b9050919050565b60008115159050919050565b600073ffffffffffffffffffffffffffffffffffffffff82169050919050565b6000819050919050565b600060ff82169050919050565b6000611bac82611b8a565b9050919050565b60005b83811015611bd1578082015181840152602081019050611bb6565b83811115611be0576000848401525b50505050565b60006002820490506001821680611bfe57607f821691505b60208210811415611c1257611c11611c47565b5b50919050565b7f4e487b7100000000000000000000000000000000000000000000000000000000600052601160045260246000fd5b7f4e487b7100000000000000000000000000000000000000000000000000000000600052602260045260246000fd5b6000601f19601f8301169050919050565b7f45524332303a207472616e7366657220746f20746865207a65726f206164647260008201527f6573730000000000000000000000000000000000000000000000000000000000602082015250565b7f45524332303a20617070726f766520746f20746865207a65726f20616464726560008201527f7373000000000000000000000000000000000000000000000000000000000000602082015250565b7f616d6f756e744100000000000000000000000000000000000000000000000000600082015250565b7f616d6f756e744200000000000000000000000000000000000000000000000000600082015250565b7f45524332303a207472616e7366657220616d6f756e742065786365656473206260008201527f616c616e63650000000000000000000000000000000000000000000000000000602082015250565b7f45524332303a207472616e7366657220616d6f756e742065786365656473206160008201527f6c6c6f77616e6365000000000000000000000000000000000000000000000000602082015250565b7f45524332303a207472616e736665722066726f6d20746865207a65726f20616460008201527f6472657373000000000000000000000000000000000000000000000000000000602082015250565b7f6c69717569646974790000000000000000000000000000000000000000000000600082015250565b7f45524332303a20617070726f76652066726f6d20746865207a65726f2061646460008201527f7265737300000000000000000000000000000000000000000000000000000000602082015250565b7f45524332303a2064656372656173656420616c6c6f77616e63652062656c6f7760008201527f207a65726f000000000000000000000000000000000000000000000000000000602082015250565b611f3481611b4c565b8114611f3f57600080fd5b50565b611f4b81611b5e565b8114611f5657600080fd5b50565b611f6281611b8a565b8114611f6d57600080fd5b5056fea2646970667358221220099602014f357562e65921de968fb5576e8fa0d517363509fb46b915ae5609c564736f6c63430008040033",
  "linkReferences": {},
  "deployedLinkReferences": {}
}